{
  "contractName": "TicTacToe",
  "abi": [
    {
      "inputs": [],
      "payable": false,
      "stateMutability": "nonpayable",
      "type": "constructor"
    },
    {
      "constant": false,
      "inputs": [
        {
          "name": "_token",
          "type": "uint256"
        }
      ],
      "name": "getToken",
      "outputs": [],
      "payable": true,
      "stateMutability": "payable",
      "type": "function"
    },
    {
      "constant": false,
      "inputs": [
        {
          "name": "_rounds",
          "type": "uint256"
        },
        {
          "name": "_betForEachRounds",
          "type": "uint256[]"
        }
      ],
      "name": "start",
      "outputs": [],
      "payable": false,
      "stateMutability": "nonpayable",
      "type": "function"
    },
    {
      "constant": false,
      "inputs": [],
      "name": "join",
      "outputs": [],
      "payable": false,
      "stateMutability": "nonpayable",
      "type": "function"
    },
    {
      "constant": false,
      "inputs": [
        {
          "name": "_row",
          "type": "uint256"
        },
        {
          "name": "_column",
          "type": "uint256"
        }
      ],
      "name": "play",
      "outputs": [
        {
          "name": "",
          "type": "string"
        }
      ],
      "payable": false,
      "stateMutability": "nonpayable",
      "type": "function"
    },
    {
      "constant": true,
      "inputs": [],
      "name": "getState",
      "outputs": [
        {
          "name": "totalRounds",
          "type": "uint256"
        },
        {
          "name": "currentRound",
          "type": "uint256"
        },
        {
          "name": "betForEachRounds",
          "type": "uint256[]"
        },
        {
          "name": "player1",
          "type": "address"
        },
        {
          "name": "player2",
          "type": "address"
        },
        {
          "name": "timelimit",
          "type": "uint256"
        },
        {
          "name": "turn",
          "type": "uint256"
        },
        {
          "name": "row1",
          "type": "uint256"
        },
        {
          "name": "row2",
          "type": "uint256"
        },
        {
          "name": "row3",
          "type": "uint256"
        }
      ],
      "payable": false,
      "stateMutability": "view",
      "type": "function"
    },
    {
      "constant": true,
      "inputs": [],
      "name": "totalSupply",
      "outputs": [
        {
          "name": "",
          "type": "uint256"
        }
      ],
      "payable": false,
      "stateMutability": "view",
      "type": "function"
    },
    {
      "constant": true,
      "inputs": [
        {
          "name": "_playerAddress",
          "type": "address"
        }
      ],
      "name": "balanceOf",
      "outputs": [
        {
          "name": "",
          "type": "uint256"
        }
      ],
      "payable": false,
      "stateMutability": "view",
      "type": "function"
    }
  ],
  "bytecode": "0x6080604052620f424060015534801561001757600080fd5b50336000806101000a81548173ffffffffffffffffffffffffffffffffffffffff021916908373ffffffffffffffffffffffffffffffffffffffff16021790555061186e806100676000396000f3fe608060405260043610610083576000357c0100000000000000000000000000000000000000000000000000000000900463ffffffff16806318160ddd146100885780631865c57d146100b357806370a08231146101b65780637bc49a951461021b5780637e12270c146102d9578063b688a363146103a8578063e4b50cb8146103bf575b600080fd5b34801561009457600080fd5b5061009d6103ed565b6040518082815260200191505060405180910390f35b3480156100bf57600080fd5b506100c86103f7565b604051808b81526020018a8152602001806020018973ffffffffffffffffffffffffffffffffffffffff1673ffffffffffffffffffffffffffffffffffffffff1681526020018873ffffffffffffffffffffffffffffffffffffffff1673ffffffffffffffffffffffffffffffffffffffff16815260200187815260200186815260200185815260200184815260200183815260200182810382528a818151815260200191508051906020019060200280838360005b8381101561019957808201518184015260208101905061017e565b505050509050019b50505050505050505050505060405180910390f35b3480156101c257600080fd5b50610205600480360360208110156101d957600080fd5b81019080803573ffffffffffffffffffffffffffffffffffffffff169060200190929190505050610685565b6040518082815260200191505060405180910390f35b34801561022757600080fd5b5061025e6004803603604081101561023e57600080fd5b8101908080359060200190929190803590602001909291905050506106ce565b6040518080602001828103825283818151815260200191508051906020019080838360005b8381101561029e578082015181840152602081019050610283565b50505050905090810190601f1680156102cb5780820380516001836020036101000a031916815260200191505b509250505060405180910390f35b3480156102e557600080fd5b506103a6600480360360408110156102fc57600080fd5b81019080803590602001909291908035906020019064010000000081111561032357600080fd5b82018360208201111561033557600080fd5b8035906020019184602083028401116401000000008311171561035757600080fd5b919080806020026020016040519081016040528093929190818152602001838360200280828437600081840152601f19601f820116905080830192505050505050509192919290505050610cfe565b005b3480156103b457600080fd5b506103bd610f4d565b005b6103eb600480360360208110156103d557600080fd5b81019080803590602001909291905050506110c5565b005b6000600154905090565b6000806060600080600080600080600060046000015499506004600101549850600460060180548060200260200160405190810160405280929190818152602001828054801561046657602002820191906000526020600020905b815481526020019060010190808311610452575b50505050509750600460030160009054906101000a900473ffffffffffffffffffffffffffffffffffffffff1696506004800160009054906101000a900473ffffffffffffffffffffffffffffffffffffffff1695506004600501549450600460020154935060056004600701600080815260200190815260200160002060006002815260200190815260200160002054016005600460070160008081526020019081526020016000206000600181526020019081526020016000205401600a026005600460070160008081526020019081526020016000206000808152602001908152602001600020540160640201019250600560046007016000600181526020019081526020016000206000600281526020019081526020016000205401600560046007016000600181526020019081526020016000206000600181526020019081526020016000205401600a02600560046007016000600181526020019081526020016000206000808152602001908152602001600020540160640201019150600560046007016000600281526020019081526020016000206000600281526020019081526020016000205401600560046007016000600281526020019081526020016000206000600181526020019081526020016000205401600a0260056004600701600060028152602001908152602001600020600080815260200190815260200160002054016064020101905090919293949596979899565b6000600260008373ffffffffffffffffffffffffffffffffffffffff1673ffffffffffffffffffffffffffffffffffffffff168152602001908152602001600020549050919050565b60606000600290506000809050600460030160009054906101000a900473ffffffffffffffffffffffffffffffffffffffff1673ffffffffffffffffffffffffffffffffffffffff163373ffffffffffffffffffffffffffffffffffffffff16141561073957600191505b6004600501544211156107545761074f82611149565b600190505b80151515610816576040517f08c379a00000000000000000000000000000000000000000000000000000000081526004018080602001828103825260428152602001807f54696d65206c696d69742065786365656465642c20796f752063616e6e6f742081526020017f636f6e74696e756521204f70706f7369746520706c617965722773207475726e81526020017f2e2e00000000000000000000000000000000000000000000000000000000000081525060600191505060405180910390fd5b600460000154600460010154111580156108815750600073ffffffffffffffffffffffffffffffffffffffff166004800160009054906101000a900473ffffffffffffffffffffffffffffffffffffffff1673ffffffffffffffffffffffffffffffffffffffff1614155b801561088e575060008510155b801561089a5750600385105b80156108a7575060008410155b80156108b35750600384105b80156108e65750600060046007016000878152602001908152602001600020600086815260200190815260200160002054145b801561090757506000600460050154148061090657506004600501544211155b5b801561091a57508160ff16600460020154145b15610cbd578160ff1660046007016000878152602001908152602001600020600086815260200190815260200160002081905550610956611181565b156109f557610989600460030160009054906101000a900473ffffffffffffffffffffffffffffffffffffffff1661120e565b6109b66004800160009054906101000a900473ffffffffffffffffffffffffffffffffffffffff1661120e565b6040805190810160405280601c81526020017f47616d65205461626c652066756c6c2c206d617463682054494544210000000081525092505050610cf8565b610a018260ff166112a3565b15610bfc5760018260ff161415610ae857610a40600460030160009054906101000a900473ffffffffffffffffffffffffffffffffffffffff1661120e565b610a6d6004800160009054906101000a900473ffffffffffffffffffffffffffffffffffffffff1661120e565b610ae26004800160009054906101000a900473ffffffffffffffffffffffffffffffffffffffff16600460030160009054906101000a900473ffffffffffffffffffffffffffffffffffffffff166004600601600460010154815481101515610ad257fe5b906000526020600020015461133d565b50610bbd565b610b16600460030160009054906101000a900473ffffffffffffffffffffffffffffffffffffffff1661120e565b610b436004800160009054906101000a900473ffffffffffffffffffffffffffffffffffffffff1661120e565b610bbb600460030160009054906101000a900473ffffffffffffffffffffffffffffffffffffffff166004800160009054906101000a900473ffffffffffffffffffffffffffffffffffffffff1660016004600601600460010154815481101515610baa57fe5b90600052602060002001540361133d565b505b6040805190810160405280600781526020017f57696e6e6572210000000000000000000000000000000000000000000000000081525092505050610cf8565b6078420160046005018190555060018260ff161415610c7357600160046001016000828254019250508190555060026004600201819055506040805190810160405280600e81526020017f506c61796572322773207475726e00000000000000000000000000000000000081525092505050610cf8565b60016004600201819055506040805190810160405280600e81526020017f506c61796572312773207475726e00000000000000000000000000000000000081525092505050610cf8565b6040805190810160405280600681526020017f4552524f52210000000000000000000000000000000000000000000000000000815250925050505b92915050565b805182141515610d9c576040517f08c379a00000000000000000000000000000000000000000000000000000000081526004018080602001828103825260378152602001807f42657420666f72206561636820726f756e64206973206e6f7420657175616c7381526020017f20746f20746f74616c20726f756e647320636f756e742100000000000000000081525060400191505060405180910390fd5b60e06040519081016040528083815260200160008152602001600181526020013373ffffffffffffffffffffffffffffffffffffffff168152602001600073ffffffffffffffffffffffffffffffffffffffff1681526020016000815260200182815250600460008201518160000155602082015181600101556040820151816002015560608201518160030160006101000a81548173ffffffffffffffffffffffffffffffffffffffff021916908373ffffffffffffffffffffffffffffffffffffffff16021790555060808201518160040160006101000a81548173ffffffffffffffffffffffffffffffffffffffff021916908373ffffffffffffffffffffffffffffffffffffffff16021790555060a0820151816005015560c0820151816006019080519060200190610ed49291906117d0565b50905050610ee8610ee361149c565b6114ec565b60005b6003811015610f485760005b6003811015610f3a576000600460070160008481526020019081526020016000206000838152602001908152602001600020819055508080600101915050610ef7565b508080600101915050610eeb565b505050565b600073ffffffffffffffffffffffffffffffffffffffff16600460030160009054906101000a900473ffffffffffffffffffffffffffffffffffffffff1673ffffffffffffffffffffffffffffffffffffffff1614151515611063576040517f08c379a00000000000000000000000000000000000000000000000000000000081526004018080602001828103825260428152602001807f506c617965723120686173206e6f74206a6f696e6564207965742c20796f752081526020017f63616e6e6f74204a4f494e3b20506c65617365207374617274206e657720476181526020017f6d6500000000000000000000000000000000000000000000000000000000000081525060600191505060405180910390fd5b61107361106e61149c565b6114ec565b336004800160006101000a81548173ffffffffffffffffffffffffffffffffffffffff021916908373ffffffffffffffffffffffffffffffffffffffff16021790555060784201600460050181905550565b60003411151561113d576040517f08c379a000000000000000000000000000000000000000000000000000000000815260040180806020018281038252600b8152602001807f56616c756520776173203000000000000000000000000000000000000000000081525060200191505060405180910390fd5b61114681611665565b50565b60018160ff161415611165576002600460020181905550611171565b60016004600201819055505b6078420160046005018190555050565b6000806000905060005b60038110156111f45760005b60038110156111e65760006004600701600084815260200190815260200160002060008381526020019081526020016000205411156111d95782806001019350505b8080600101915050611197565b50808060010191505061118b565b5060098110151561120957600191505061120b565b505b90565b6000600360008373ffffffffffffffffffffffffffffffffffffffff1673ffffffffffffffffffffffffffffffffffffffff16815260200190815260200160002054905080600260008473ffffffffffffffffffffffffffffffffffffffff1673ffffffffffffffffffffffffffffffffffffffff168152602001908152602001600020600082825401925050819055505050565b60006112ba82600060016002600060016002611726565b806112d557506112d4826000600160028060016000611726565b5b156112e35760019050611338565b60005b60038110156113365761130183828384600060016002611726565b8061131a575061131983600060016002858687611726565b5b15611329576001915050611338565b80806001019150506112e6565b505b919050565b600080600260008673ffffffffffffffffffffffffffffffffffffffff1673ffffffffffffffffffffffffffffffffffffffff1681526020019081526020016000205490508281101515156113fa576040517f08c379a000000000000000000000000000000000000000000000000000000000815260040180806020018281038252601c8152602001807f496e73756666696369656e7420616d6f756e74206f6620746f6b656e0000000081525060200191505060405180910390fd5b82600260008673ffffffffffffffffffffffffffffffffffffffff1673ffffffffffffffffffffffffffffffffffffffff1681526020019081526020016000206000828254019250508190555082600260008773ffffffffffffffffffffffffffffffffffffffff1673ffffffffffffffffffffffffffffffffffffffff16815260200190815260200160002060008282540392505081905550509392505050565b6000806000905060008090505b6004600601805490508110156114e7576004600601818154811015156114cb57fe5b90600052602060002001548201915080806001019150506114a9565b505090565b80600260003373ffffffffffffffffffffffffffffffffffffffff1673ffffffffffffffffffffffffffffffffffffffff168152602001908152602001600020541115156115c8576040517f08c379a000000000000000000000000000000000000000000000000000000000815260040180806020018281038252602b8152602001807f496e73756666696369656e7420746f6b656e20696e2073656e6465722061636381526020017f6f756e7420746f2062657400000000000000000000000000000000000000000081525060400191505060405180910390fd5b80600360003373ffffffffffffffffffffffffffffffffffffffff1673ffffffffffffffffffffffffffffffffffffffff1681526020019081526020016000206000828254019250508190555080600260003373ffffffffffffffffffffffffffffffffffffffff1673ffffffffffffffffffffffffffffffffffffffff1681526020019081526020016000206000828254039250508190555050565b6000600a820290506000809054906101000a900473ffffffffffffffffffffffffffffffffffffffff1673ffffffffffffffffffffffffffffffffffffffff166108fc829081150290604051600060405180830381858888f193505050501580156116d4573d6000803e3d6000fd5b5081600260003373ffffffffffffffffffffffffffffffffffffffff1673ffffffffffffffffffffffffffffffffffffffff168152602001908152602001600020600082825401925050819055505050565b6000876004600701600089815260200190815260200160002060008681526020019081526020016000205414801561178457508760046007016000888152602001908152602001600020600085815260200190815260200160002054145b80156117b657508760046007016000878152602001908152602001600020600084815260200190815260200160002054145b156117c457600190506117c5565b5b979650505050505050565b82805482825590600052602060002090810192821561180c579160200282015b8281111561180b5782518255916020019190600101906117f0565b5b509050611819919061181d565b5090565b61183f91905b8082111561183b576000816000905550600101611823565b5090565b9056fea165627a7a723058207b0183c164d99dbfdd14cc518c11342b80c36073c2906b7cfb9fd2960e91e5f20029",
  "source": "pragma solidity ^0.5.0;\n\n\ncontract TicTacToe {\n    \n    address payable owner;\n    uint tokenSupply = 1000000;\n    \n    mapping(address => uint) playerTokenMapping;\n    mapping(address => uint) tokenLockMapping;\n    \n    struct Game {\n        uint    totalRounds;\n        uint    currentRound;\n        uint    turn; \n        address payable player1;\n        address payable player2;\n        uint    time_limit;\n        uint[]  betForEachRounds;\n        mapping(uint => mapping(uint => uint)) board;\n    }\n    \n    Game private game;\n    \n    constructor() public {\n        owner = msg.sender;\n    }\n    \n    /**\n     * @dev User buys few tokens to their account\n     * @param _token - number of tokens to buy\n     * \n     */\n    function getToken(uint _token)  public payable {\n        require(msg.value > 0, \"Value was 0\");\n        buyToken(_token);\n    }\n    \n    /**\n     * @dev It starts a new game by initialising it\n     * @param _rounds - number of rounds\n     * @param _betForEachRounds - list of bet amounts for each round\n     */\n    function start(uint _rounds, uint[] memory _betForEachRounds) public {\n        require(_rounds == _betForEachRounds.length, \"Bet for each round is not equals to total rounds count!\");\n        game = Game(_rounds, 0, 1, msg.sender, address(0), 0, _betForEachRounds);\n        lockDownTokens(getTotalBetToken());\n\n        for (uint row; row < 3; row++)\n            for(uint column; column < 3; column++)\n                game.board[row][column] = 0;\n    }\n    \n    /**\n     * @dev the second player to join the existing game\n     * \n     */\n    function join() public {\n        require (game.player1 != address(0), \"Player1 has not joined yet, you cannot JOIN; Please start new Game\");\n        lockDownTokens(getTotalBetToken());\n        \n        game.player2 = msg.sender;\n        game.time_limit = block.timestamp + (120);\n    }\n    \n    /**\n     * @dev Once after starting the game player will use this method to play\n     * @param _row - the row the player wants to take\n     * @param _column - the column the player wants to pick\n     */\n    function play(uint _row, uint _column) public returns(string memory){\n        uint8 player = 2;\n        bool isTimeElapsed = false;\n        if (msg.sender == game.player1)\n            player = 1;\n            \n        if (block.timestamp > game.time_limit) {\n            resetTimeLimit(player);\n            isTimeElapsed = true;\n        }\n            \n        require(!isTimeElapsed, \"Time limit exceeded, you cannot continue! Opposite player's turn..\");\n        \n           \n        if (game.currentRound <= game.totalRounds && game.player2 != address(0)\n        && _row >= 0 && _row < 3 && _column >= 0 && _column < 3\n        && game.board[_row][_column] == 0\n        && (game.time_limit == 0 || block.timestamp <= game.time_limit)\n        && game.turn == player) {\n            game.board[_row][_column] = player;\n            \n            if(isFull()) {\n                releaseToken(game.player1);\n                releaseToken(game.player2);\n                return \"Game Table full, match TIED!\";\n            }\n            \n            if (isWinner(player)) {\n                if (player == 1) {\n                    releaseToken(game.player1);\n                    releaseToken(game.player2);\n                    transfer(game.player2, game.player1, game.betForEachRounds[game.currentRound]);\n                }\n                else {\n                    releaseToken(game.player1);\n                    releaseToken(game.player2);\n                    transfer(game.player1, game.player2, game.betForEachRounds[game.currentRound]-1);\n                }\n\n                return \"Winner!\";\n            }\n            game.time_limit = block.timestamp + (120);\n            \n            if (player == 1) {\n                game.currentRound += 1;\n                game.turn = 2;\n                return \"Player2's turn\";\n            }\n            else {\n                game.turn = 1;\n                return \"Player1's turn\";\n            }\n            \n        }\n        \n        return \"ERROR!\";\n    }\n    \n    /**\n     * @dev utility method to check the current status of the table\n     */\n    function check(uint _player, uint _row1, uint _row2, uint _row3, uint _column1, uint _column2, uint _column3)\n                    internal view returns (bool) {\n        if (game.board[_row1][_column1] == _player && game.board[_row2][_column2] == _player\n        && game.board[_row3][_column3] == _player)\n            return true;\n    }\n    \n    /**\n     * @dev checks the current sender is the game winner\n     * @param _player - int represent whether the current sender is Player1/Player2\n     * \n     */\n    function isWinner(uint _player) internal view returns (bool winner) {\n        if (check(_player, 0, 1, 2, 0, 1, 2)\n        || check(_player, 0, 1, 2, 2, 1, 0))\n            return true;\n            \n        for (uint row; row < 3; row++)\n            if(check(_player, row, row, row, 0, 1, 2)\n            || check(_player, 0, 1, 2, row, row, row))\n                return true;\n    }\n    \n    /**\n     * @dev used to check whether the game table was full\n     * @return bool - boolean that represent the table status\n     */\n    function isFull() internal view returns (bool) {\n        uint count = 0;\n        for (uint row; row < 3; row++)\n            for(uint column; column < 3; column++)\n                if(game.board[row][column] > 0)\n                    count++;\n        \n        if (count >= 9)\n            return true;\n    }\n    \n    /**\n     * @dev - returns the current game status\n     */\n    function getState() public view returns (uint totalRounds, uint currentRound, uint[] memory betForEachRounds, address player1, address player2,\n    uint timelimit, uint turn, uint row1, uint row2, uint row3) {\n        totalRounds = game.totalRounds;\n        currentRound = game.currentRound;\n        betForEachRounds = game.betForEachRounds;\n        player1 = game.player1;\n        player2 = game.player2;\n        timelimit = game.time_limit;\n        turn = game.turn;\n        \n        row1 = (100 * (game.board[0][0] + 5)) \n        + (10 * (game.board[0][1]  + 5)) + (game.board[0][2]  + 5);\n        row2 = (100 * (game.board[1][0] + 5)) \n        + (10 * (game.board[1][1] + 5)) + (game.board[1][2] +5);\n        row3 = (100 * (game.board[2][0] + 5)) \n        + (10 * (game.board[2][1] + 5)) + (game.board[2][2] +5);\n    }\n    \n    /**\n     * @dev resets the timelimit and changes the player turn\n     * @param _player - current player\n     * \n     */\n    function resetTimeLimit(uint8 _player) private {\n        if (_player == 1)\n                game.turn = 2;\n            else\n                game.turn = 1;\n                \n        game.time_limit = block.timestamp + (120);\n    }\n    \n    /**\n     * @dev returns total bet tokens\n     * @return bool - total token count\n     * \n     */\n    function getTotalBetToken() private view returns(uint) {\n        uint total = 0;\n        for (uint index = 0; index < game.betForEachRounds.length; index++)\n            total += game.betForEachRounds[index];\n    }\n    \n    \n     /**\n     * @dev returns total token supply\n     * @return uint - totaltoken supply\n     */\n    function totalSupply() public view returns(uint) {\n        return tokenSupply;\n    }\n    \n    /**\n     * @dev returns the balance token of the provided address\n     * @param _playerAddress - address of the player\n     * @return uint - token balance\n     */\n    function balanceOf(address _playerAddress) public view returns(uint) {\n        return playerTokenMapping[_playerAddress];\n    }\n    \n    /**\n     * @dev transfer the amount of token to _toAddress from _fromAddress\n     * @param _fromAddress - From address of the player\n     * @param _toAddress - To address of the player\n     * @param _token - amount of token to send\n     * @return bool - whether the transfer was success or not\n     * \n     */\n    function transfer(address _fromAddress, address _toAddress, uint _token) private returns(bool) {\n        uint senderToken = playerTokenMapping[_fromAddress];\n        \n        //check for sufficient balance in sender account\n        require(senderToken >= _token, \"Insufficient amount of token\");\n        \n        playerTokenMapping[_toAddress] += _token;\n        playerTokenMapping[_fromAddress] -= _token;\n    }\n    \n    /**\n     * @dev Player should buy token using theri ether\n     * @param _token - number of token to buy\n     * \n     */\n    function buyToken(uint _token) private  {\n        uint weiAmount = _token * 10;\n        owner.transfer(weiAmount);\n        playerTokenMapping[msg.sender] += _token; \n    }\n    \n    /**\n     * @dev locks down the total bet tokens till the game seconds\n     * @param _token - total bet amount\n     * \n     */\n    function lockDownTokens(uint _token) private {\n        //check for sufficient token to bet for game\n        require(playerTokenMapping[msg.sender] > _token, \"Insufficient token in sender account to bet\");\n        \n        tokenLockMapping[msg.sender] += _token;\n        playerTokenMapping[msg.sender] -= _token;\n    }\n    \n    /**\n     * @dev Once the game was over players token will be released\n     * @param _playerAddress - address of the player\n     * \n     */\n    function releaseToken(address _playerAddress) private {\n        uint token = tokenLockMapping[_playerAddress];\n        playerTokenMapping[_playerAddress] += token;\n    }\n}\n\n",
  "sourcePath": "/Users/muthu_thavamani/Documents/Muthu/Test_Project/Ether-truffle/contracts/TicTacToe.sol",
  "compiler": {
    "name": "solc",
    "version": "0.5.0+commit.1d4f565a.Emscripten.clang"
  },
  "schemaVersion": "3.0.11",
  "updatedAt": "2019-07-30T10:49:34.652Z",
  "devdoc": {
    "methods": {
      "balanceOf(address)": {
        "details": "returns the balance token of the provided address",
        "params": {
          "_playerAddress": "- address of the player"
        },
        "return": "uint - token balance"
      },
      "getState()": {
        "details": "- returns the current game status"
      },
      "getToken(uint256)": {
        "details": "User buys few tokens to their account",
        "params": {
          "_token": "- number of tokens to buy      "
        }
      },
      "join()": {
        "details": "the second player to join the existing game      "
      },
      "play(uint256,uint256)": {
        "details": "Once after starting the game player will use this method to play",
        "params": {
          "_column": "- the column the player wants to pick",
          "_row": "- the row the player wants to take"
        }
      },
      "start(uint256,uint256[])": {
        "details": "It starts a new game by initialising it",
        "params": {
          "_betForEachRounds": "- list of bet amounts for each round",
          "_rounds": "- number of rounds"
        }
      },
      "totalSupply()": {
        "details": "returns total token supply",
        "return": "uint - totaltoken supply"
      }
    }
  },
  "userdoc": {
    "methods": {}
  }
}