{
  "contractName": "TicTacToe",
  "abi": [
    {
      "constant": true,
      "inputs": [
        {
          "name": "",
          "type": "uint256"
        }
      ],
      "name": "keyList",
      "outputs": [
        {
          "name": "",
          "type": "address"
        }
      ],
      "payable": false,
      "stateMutability": "view",
      "type": "function"
    },
    {
      "constant": true,
      "inputs": [
        {
          "name": "",
          "type": "address"
        }
      ],
      "name": "playerTokenMapping",
      "outputs": [
        {
          "name": "",
          "type": "uint256"
        }
      ],
      "payable": false,
      "stateMutability": "view",
      "type": "function"
    },
    {
      "inputs": [],
      "payable": false,
      "stateMutability": "nonpayable",
      "type": "constructor"
    },
    {
      "constant": false,
      "inputs": [
        {
          "name": "_token",
          "type": "uint256"
        }
      ],
      "name": "getToken",
      "outputs": [
        {
          "name": "",
          "type": "uint256"
        }
      ],
      "payable": true,
      "stateMutability": "payable",
      "type": "function"
    },
    {
      "constant": true,
      "inputs": [],
      "name": "getKeys",
      "outputs": [
        {
          "name": "",
          "type": "address[]"
        }
      ],
      "payable": false,
      "stateMutability": "view",
      "type": "function"
    },
    {
      "constant": false,
      "inputs": [
        {
          "name": "_rounds",
          "type": "uint256"
        },
        {
          "name": "_betForEachRounds",
          "type": "uint256[]"
        }
      ],
      "name": "start",
      "outputs": [],
      "payable": false,
      "stateMutability": "nonpayable",
      "type": "function"
    },
    {
      "constant": false,
      "inputs": [],
      "name": "join",
      "outputs": [],
      "payable": false,
      "stateMutability": "nonpayable",
      "type": "function"
    },
    {
      "constant": false,
      "inputs": [
        {
          "name": "_row",
          "type": "uint256"
        },
        {
          "name": "_column",
          "type": "uint256"
        }
      ],
      "name": "play",
      "outputs": [
        {
          "name": "",
          "type": "string"
        }
      ],
      "payable": false,
      "stateMutability": "nonpayable",
      "type": "function"
    },
    {
      "constant": true,
      "inputs": [],
      "name": "getState",
      "outputs": [
        {
          "name": "totalRounds",
          "type": "uint256"
        },
        {
          "name": "currentRound",
          "type": "uint256"
        },
        {
          "name": "betForEachRounds",
          "type": "uint256[]"
        },
        {
          "name": "player1",
          "type": "address"
        },
        {
          "name": "player2",
          "type": "address"
        },
        {
          "name": "timelimit",
          "type": "uint256"
        },
        {
          "name": "turn",
          "type": "uint256"
        },
        {
          "name": "row1",
          "type": "uint256"
        },
        {
          "name": "row2",
          "type": "uint256"
        },
        {
          "name": "row3",
          "type": "uint256"
        }
      ],
      "payable": false,
      "stateMutability": "view",
      "type": "function"
    },
    {
      "constant": true,
      "inputs": [],
      "name": "totalSupply",
      "outputs": [
        {
          "name": "",
          "type": "uint256"
        }
      ],
      "payable": false,
      "stateMutability": "view",
      "type": "function"
    },
    {
      "constant": true,
      "inputs": [
        {
          "name": "_playerAddress",
          "type": "address"
        }
      ],
      "name": "balanceOf",
      "outputs": [
        {
          "name": "",
          "type": "uint256"
        }
      ],
      "payable": false,
      "stateMutability": "view",
      "type": "function"
    }
  ],
  "bytecode": "0x6080604052620f4240600155600a60025534801561001c57600080fd5b50336000806101000a81548173ffffffffffffffffffffffffffffffffffffffff021916908373ffffffffffffffffffffffffffffffffffffffff160217905550611bb08061006c6000396000f3fe6080604052600436106100a4576000357c0100000000000000000000000000000000000000000000000000000000900463ffffffff16806318160ddd146100a95780631865c57d146100d45780631ce05c45146101d75780632150c518146102525780636b3e9557146102be57806370a08231146103235780637bc49a95146103885780637e12270c14610446578063b688a36314610515578063e4b50cb81461052c575b600080fd5b3480156100b557600080fd5b506100be61056e565b6040518082815260200191505060405180910390f35b3480156100e057600080fd5b506100e9610578565b604051808b81526020018a8152602001806020018973ffffffffffffffffffffffffffffffffffffffff1673ffffffffffffffffffffffffffffffffffffffff1681526020018873ffffffffffffffffffffffffffffffffffffffff1673ffffffffffffffffffffffffffffffffffffffff16815260200187815260200186815260200185815260200184815260200183815260200182810382528a818151815260200191508051906020019060200280838360005b838110156101ba57808201518184015260208101905061019f565b505050509050019b50505050505050505050505060405180910390f35b3480156101e357600080fd5b50610210600480360360208110156101fa57600080fd5b8101908080359060200190929190505050610806565b604051808273ffffffffffffffffffffffffffffffffffffffff1673ffffffffffffffffffffffffffffffffffffffff16815260200191505060405180910390f35b34801561025e57600080fd5b50610267610844565b6040518080602001828103825283818151815260200191508051906020019060200280838360005b838110156102aa57808201518184015260208101905061028f565b505050509050019250505060405180910390f35b3480156102ca57600080fd5b5061030d600480360360208110156102e157600080fd5b81019080803573ffffffffffffffffffffffffffffffffffffffff1690602001909291905050506108d2565b6040518082815260200191505060405180910390f35b34801561032f57600080fd5b506103726004803603602081101561034657600080fd5b81019080803573ffffffffffffffffffffffffffffffffffffffff1690602001909291905050506108ea565b6040518082815260200191505060405180910390f35b34801561039457600080fd5b506103cb600480360360408110156103ab57600080fd5b810190808035906020019092919080359060200190929190505050610933565b6040518080602001828103825283818151815260200191508051906020019080838360005b8381101561040b5780820151818401526020810190506103f0565b50505050905090810190601f1680156104385780820380516001836020036101000a031916815260200191505b509250505060405180910390f35b34801561045257600080fd5b506105136004803603604081101561046957600080fd5b81019080803590602001909291908035906020019064010000000081111561049057600080fd5b8201836020820111156104a257600080fd5b803590602001918460208302840111640100000000831117156104c457600080fd5b919080806020026020016040519081016040528093929190818152602001838360200280828437600081840152601f19601f820116905080830192505050505050509192919290505050610f67565b005b34801561052157600080fd5b5061052a6111b6565b005b6105586004803603602081101561054257600080fd5b810190808035906020019092919050505061132f565b6040518082815260200191505060405180910390f35b6000600154905090565b6000806060600080600080600080600060066000015499506006600101549850600680018054806020026020016040519081016040528092919081815260200182805480156105e657602002820191906000526020600020905b8154815260200190600101908083116105d2575b50505050509750600660030160009054906101000a900473ffffffffffffffffffffffffffffffffffffffff169650600660040160009054906101000a900473ffffffffffffffffffffffffffffffffffffffff1695506006600501549450600660020154935060056006600701600080815260200190815260200160002060006002815260200190815260200160002054016005600660070160008081526020019081526020016000206000600181526020019081526020016000205401600a026005600660070160008081526020019081526020016000206000808152602001908152602001600020540160640201019250600560066007016000600181526020019081526020016000206000600281526020019081526020016000205401600560066007016000600181526020019081526020016000206000600181526020019081526020016000205401600a02600560066007016000600181526020019081526020016000206000808152602001908152602001600020540160640201019150600560066007016000600281526020019081526020016000206000600281526020019081526020016000205401600560066007016000600281526020019081526020016000206000600181526020019081526020016000205401600a0260056006600701600060028152602001908152602001600020600080815260200190815260200160002054016064020101905090919293949596979899565b60058181548110151561081557fe5b906000526020600020016000915054906101000a900473ffffffffffffffffffffffffffffffffffffffff1681565b606060058054806020026020016040519081016040528092919081815260200182805480156108c857602002820191906000526020600020905b8160009054906101000a900473ffffffffffffffffffffffffffffffffffffffff1673ffffffffffffffffffffffffffffffffffffffff168152602001906001019080831161087e575b5050505050905090565b60036020528060005260406000206000915090505481565b6000600360008373ffffffffffffffffffffffffffffffffffffffff1673ffffffffffffffffffffffffffffffffffffffff168152602001908152602001600020549050919050565b60606000600290506000809050600660030160009054906101000a900473ffffffffffffffffffffffffffffffffffffffff1673ffffffffffffffffffffffffffffffffffffffff163373ffffffffffffffffffffffffffffffffffffffff16141561099e57600191505b6006600501544211156109b9576109b48261154a565b600190505b80151515610a7b576040517f08c379a00000000000000000000000000000000000000000000000000000000081526004018080602001828103825260428152602001807f54696d65206c696d69742065786365656465642c20796f752063616e6e6f742081526020017f636f6e74696e756521204f70706f7369746520706c617965722773207475726e81526020017f2e2e00000000000000000000000000000000000000000000000000000000000081525060600191505060405180910390fd5b60066000015460066001015411158015610ae75750600073ffffffffffffffffffffffffffffffffffffffff16600660040160009054906101000a900473ffffffffffffffffffffffffffffffffffffffff1673ffffffffffffffffffffffffffffffffffffffff1614155b8015610af4575060008510155b8015610b005750600385105b8015610b0d575060008410155b8015610b195750600384105b8015610b4c5750600060066007016000878152602001908152602001600020600086815260200190815260200160002054145b8015610b6d575060006006600501541480610b6c57506006600501544211155b5b8015610b8057508160ff16600660020154145b15610f26578160ff1660066007016000878152602001908152602001600020600086815260200190815260200160002081905550610bbc611582565b15610c5c57610bef600660030160009054906101000a900473ffffffffffffffffffffffffffffffffffffffff1661160f565b610c1d600660040160009054906101000a900473ffffffffffffffffffffffffffffffffffffffff1661160f565b6040805190810160405280601c81526020017f47616d65205461626c652066756c6c2c206d617463682054494544210000000081525092505050610f61565b610c688260ff166116a4565b15610e655760018260ff161415610d5057610ca7600660030160009054906101000a900473ffffffffffffffffffffffffffffffffffffffff1661160f565b610cd5600660040160009054906101000a900473ffffffffffffffffffffffffffffffffffffffff1661160f565b610d4a600660040160009054906101000a900473ffffffffffffffffffffffffffffffffffffffff16600660030160009054906101000a900473ffffffffffffffffffffffffffffffffffffffff1660068001600660010154815481101515610d3a57fe5b906000526020600020015461173e565b50610e26565b610d7e600660030160009054906101000a900473ffffffffffffffffffffffffffffffffffffffff1661160f565b610dac600660040160009054906101000a900473ffffffffffffffffffffffffffffffffffffffff1661160f565b610e24600660030160009054906101000a900473ffffffffffffffffffffffffffffffffffffffff16600660040160009054906101000a900473ffffffffffffffffffffffffffffffffffffffff16600160068001600660010154815481101515610e1357fe5b90600052602060002001540361173e565b505b6040805190810160405280600781526020017f57696e6e6572210000000000000000000000000000000000000000000000000081525092505050610f61565b6078420160066005018190555060018260ff161415610edc57600160066001016000828254019250508190555060026006600201819055506040805190810160405280600e81526020017f506c61796572322773207475726e00000000000000000000000000000000000081525092505050610f61565b60016006600201819055506040805190810160405280600e81526020017f506c61796572312773207475726e00000000000000000000000000000000000081525092505050610f61565b6040805190810160405280600681526020017f4552524f52210000000000000000000000000000000000000000000000000000815250925050505b92915050565b805182141515611005576040517f08c379a00000000000000000000000000000000000000000000000000000000081526004018080602001828103825260378152602001807f42657420666f72206561636820726f756e64206973206e6f7420657175616c7381526020017f20746f20746f74616c20726f756e647320636f756e742100000000000000000081525060400191505060405180910390fd5b60e06040519081016040528083815260200160008152602001600181526020013373ffffffffffffffffffffffffffffffffffffffff168152602001600073ffffffffffffffffffffffffffffffffffffffff1681526020016000815260200182815250600660008201518160000155602082015181600101556040820151816002015560608201518160030160006101000a81548173ffffffffffffffffffffffffffffffffffffffff021916908373ffffffffffffffffffffffffffffffffffffffff16021790555060808201518160040160006101000a81548173ffffffffffffffffffffffffffffffffffffffff021916908373ffffffffffffffffffffffffffffffffffffffff16021790555060a0820151816005015560c082015181600601908051906020019061113d929190611b12565b5090505061115161114c61189d565b6118ee565b60005b60038110156111b15760005b60038110156111a3576000600660070160008481526020019081526020016000206000838152602001908152602001600020819055508080600101915050611160565b508080600101915050611154565b505050565b600073ffffffffffffffffffffffffffffffffffffffff16600660030160009054906101000a900473ffffffffffffffffffffffffffffffffffffffff1673ffffffffffffffffffffffffffffffffffffffff16141515156112cc576040517f08c379a00000000000000000000000000000000000000000000000000000000081526004018080602001828103825260428152602001807f506c617965723120686173206e6f74206a6f696e6564207965742c20796f752081526020017f63616e6e6f74204a4f494e3b20506c65617365207374617274206e657720476181526020017f6d6500000000000000000000000000000000000000000000000000000000000081525060600191505060405180910390fd5b6112dc6112d761189d565b6118ee565b33600660040160006101000a81548173ffffffffffffffffffffffffffffffffffffffff021916908373ffffffffffffffffffffffffffffffffffffffff16021790555060784201600660050181905550565b600080600254830290508034101515156113d7576040517f08c379a00000000000000000000000000000000000000000000000000000000081526004018080602001828103825260248152602001807f496e73756666696369656e742076616c75652073656e7420746f20627579207481526020017f6f6b656e0000000000000000000000000000000000000000000000000000000081525060400191505060405180910390fd5b6000809054906101000a900473ffffffffffffffffffffffffffffffffffffffff1673ffffffffffffffffffffffffffffffffffffffff166108fc829081150290604051600060405180830381858888f1935050505015801561143e573d6000803e3d6000fd5b508260016000828254039250508190555082600360003373ffffffffffffffffffffffffffffffffffffffff1673ffffffffffffffffffffffffffffffffffffffff1681526020019081526020016000206000828254019250508190555060053390806001815401808255809150509060018203906000526020600020016000909192909190916101000a81548173ffffffffffffffffffffffffffffffffffffffff021916908373ffffffffffffffffffffffffffffffffffffffff16021790555050600360003373ffffffffffffffffffffffffffffffffffffffff1673ffffffffffffffffffffffffffffffffffffffff16815260200190815260200160002054915050919050565b60018160ff161415611566576002600660020181905550611572565b60016006600201819055505b6078420160066005018190555050565b6000806000905060005b60038110156115f55760005b60038110156115e75760006006600701600084815260200190815260200160002060008381526020019081526020016000205411156115da5782806001019350505b8080600101915050611598565b50808060010191505061158c565b5060098110151561160a57600191505061160c565b505b90565b6000600460008373ffffffffffffffffffffffffffffffffffffffff1673ffffffffffffffffffffffffffffffffffffffff16815260200190815260200160002054905080600360008473ffffffffffffffffffffffffffffffffffffffff1673ffffffffffffffffffffffffffffffffffffffff168152602001908152602001600020600082825401925050819055505050565b60006116bb82600060016002600060016002611a68565b806116d657506116d5826000600160028060016000611a68565b5b156116e45760019050611739565b60005b60038110156117375761170283828384600060016002611a68565b8061171b575061171a83600060016002858687611a68565b5b1561172a576001915050611739565b80806001019150506116e7565b505b919050565b600080600360008673ffffffffffffffffffffffffffffffffffffffff1673ffffffffffffffffffffffffffffffffffffffff1681526020019081526020016000205490508281101515156117fb576040517f08c379a000000000000000000000000000000000000000000000000000000000815260040180806020018281038252601c8152602001807f496e73756666696369656e7420616d6f756e74206f6620746f6b656e0000000081525060200191505060405180910390fd5b82600360008673ffffffffffffffffffffffffffffffffffffffff1673ffffffffffffffffffffffffffffffffffffffff1681526020019081526020016000206000828254019250508190555082600360008773ffffffffffffffffffffffffffffffffffffffff1673ffffffffffffffffffffffffffffffffffffffff16815260200190815260200160002060008282540392505081905550509392505050565b6000806000905060008090505b60068001805490508110156118e65760068001818154811015156118ca57fe5b90600052602060002001548201915080806001019150506118aa565b508091505090565b80600360003373ffffffffffffffffffffffffffffffffffffffff1673ffffffffffffffffffffffffffffffffffffffff16815260200190815260200160002054101515156119cb576040517f08c379a000000000000000000000000000000000000000000000000000000000815260040180806020018281038252602b8152602001807f496e73756666696369656e7420746f6b656e20696e2073656e6465722061636381526020017f6f756e7420746f2062657400000000000000000000000000000000000000000081525060400191505060405180910390fd5b80600460003373ffffffffffffffffffffffffffffffffffffffff1673ffffffffffffffffffffffffffffffffffffffff1681526020019081526020016000206000828254019250508190555080600360003373ffffffffffffffffffffffffffffffffffffffff1673ffffffffffffffffffffffffffffffffffffffff1681526020019081526020016000206000828254039250508190555050565b60008760066007016000898152602001908152602001600020600086815260200190815260200160002054148015611ac657508760066007016000888152602001908152602001600020600085815260200190815260200160002054145b8015611af857508760066007016000878152602001908152602001600020600084815260200190815260200160002054145b15611b065760019050611b07565b5b979650505050505050565b828054828255906000526020600020908101928215611b4e579160200282015b82811115611b4d578251825591602001919060010190611b32565b5b509050611b5b9190611b5f565b5090565b611b8191905b80821115611b7d576000816000905550600101611b65565b5090565b9056fea165627a7a723058202583afb34b037ef2dbf681de11a92588a43fe43603f3b275296f28e9574c16600029",
  "source": "pragma solidity ^0.5.0;\n\n\ncontract TicTacToe {\n    \n    address payable owner;\n    uint tokenSupply = 1000000;\n    uint tokenValue = 10;\n    \n    mapping(address => uint) public playerTokenMapping;\n    mapping(address => uint) tokenLockMapping;\n    address[] public keyList;\n\n    struct Game {\n        uint    totalRounds;\n        uint    currentRound;\n        uint    turn;\n        address payable player1;\n        address payable player2;\n        uint    time_limit;\n        uint[]  betForEachRounds;\n        mapping(uint => mapping(uint => uint)) board;\n    }\n    \n    Game private game;\n    \n    constructor() public {\n        owner = msg.sender;\n    }\n    \n    /**\n     * @dev User buys few tokens to their account\n     * @param _token - number of tokens to buy\n     */\n    function getToken(uint _token)  public payable returns(uint){\n        uint _weiAmount = _token * tokenValue;\n        require(msg.value >= _weiAmount, \"Insufficient value sent to buy token\");\n        \n        owner.transfer(_weiAmount);\n        tokenSupply -= _token;\n        playerTokenMapping[msg.sender] += _token;\n        keyList.push(msg.sender);\n        \n        return playerTokenMapping[msg.sender];\n    }\n\n    function getKeys() public view returns (address[] memory) {\n        return keyList;\n    }\n    \n    /**\n     * @dev It starts a new game by initialising it\n     * @param _rounds - number of rounds\n     * @param _betForEachRounds - list of bet amounts for each round\n     */\n    function start(uint _rounds, uint[] memory _betForEachRounds) public {\n        require(_rounds == _betForEachRounds.length, \"Bet for each round is not equals to total rounds count!\");\n        game = Game(_rounds, 0, 1, msg.sender, address(0), 0, _betForEachRounds);\n        lockDownTokens(getTotalBetToken());\n\n        for (uint row; row < 3; row++)\n            for(uint column; column < 3; column++)\n                game.board[row][column] = 0;\n    }\n    \n    /**\n     * @dev the second player to join the existing game\n     * \n     */\n    function join() public {\n        require (game.player1 != address(0), \"Player1 has not joined yet, you cannot JOIN; Please start new Game\");\n        lockDownTokens(getTotalBetToken());\n        \n        game.player2 = msg.sender;\n        game.time_limit = block.timestamp + (120);\n    }\n    \n    /**\n     * @dev Once after starting the game player will use this method to play\n     * @param _row - the row the player wants to take\n     * @param _column - the column the player wants to pick\n     */\n    function play(uint _row, uint _column) public returns(string memory){\n        uint8 player = 2;\n        bool isTimeElapsed = false;\n        if (msg.sender == game.player1)\n            player = 1;\n            \n        if (block.timestamp > game.time_limit) {\n            resetTimeLimit(player);\n            isTimeElapsed = true;\n        }\n            \n        require(!isTimeElapsed, \"Time limit exceeded, you cannot continue! Opposite player's turn..\");\n        \n           \n        if (game.currentRound <= game.totalRounds && game.player2 != address(0)\n        && _row >= 0 && _row < 3 && _column >= 0 && _column < 3\n        && game.board[_row][_column] == 0\n        && (game.time_limit == 0 || block.timestamp <= game.time_limit)\n        && game.turn == player) {\n            game.board[_row][_column] = player;\n            \n            if(isFull()) {\n                releaseToken(game.player1);\n                releaseToken(game.player2);\n                return \"Game Table full, match TIED!\";\n            }\n            \n            if (isWinner(player)) {\n                if (player == 1) {\n                    releaseToken(game.player1);\n                    releaseToken(game.player2);\n                    transfer(game.player2, game.player1, game.betForEachRounds[game.currentRound]);\n                }\n                else {\n                    releaseToken(game.player1);\n                    releaseToken(game.player2);\n                    transfer(game.player1, game.player2, game.betForEachRounds[game.currentRound]-1);\n                }\n\n                return \"Winner!\";\n            }\n            game.time_limit = block.timestamp + (120);\n            \n            if (player == 1) {\n                game.currentRound += 1;\n                game.turn = 2;\n                return \"Player2's turn\";\n            }\n            else {\n                game.turn = 1;\n                return \"Player1's turn\";\n            }\n            \n        }\n        \n        return \"ERROR!\";\n    }\n    \n    /**\n     * @dev utility method to check the current status of the table\n     */\n    function check(uint _player, uint _row1, uint _row2, uint _row3, uint _column1, uint _column2, uint _column3)\n                    internal view returns (bool) {\n        if (game.board[_row1][_column1] == _player && game.board[_row2][_column2] == _player\n        && game.board[_row3][_column3] == _player)\n            return true;\n    }\n    \n    /**\n     * @dev checks the current sender is the game winner\n     * @param _player - int represent whether the current sender is Player1/Player2\n     * @return bool - checks whether the player is winner or not\n     */\n    function isWinner(uint _player) internal view returns (bool winner) {\n        if (check(_player, 0, 1, 2, 0, 1, 2)\n        || check(_player, 0, 1, 2, 2, 1, 0))\n            return true;\n            \n        for (uint row; row < 3; row++)\n            if(check(_player, row, row, row, 0, 1, 2)\n            || check(_player, 0, 1, 2, row, row, row))\n                return true;\n    }\n    \n    /**\n     * @dev used to check whether the game table was full\n     * @return bool - boolean that represent the table status\n     */\n    function isFull() internal view returns (bool) {\n        uint count = 0;\n        for (uint row; row < 3; row++)\n            for(uint column; column < 3; column++)\n                if(game.board[row][column] > 0)\n                    count++;\n        \n        if (count >= 9)\n            return true;\n    }\n    \n    /**\n     * @dev - returns the current game status\n     */\n    function getState() public view returns (uint totalRounds, uint currentRound, uint[] memory betForEachRounds, address player1, address player2,\n    uint timelimit, uint turn, uint row1, uint row2, uint row3) {\n        totalRounds = game.totalRounds;\n        currentRound = game.currentRound;\n        betForEachRounds = game.betForEachRounds;\n        player1 = game.player1;\n        player2 = game.player2;\n        timelimit = game.time_limit;\n        turn = game.turn;\n        \n        row1 = (100 * (game.board[0][0] + 5)) \n        + (10 * (game.board[0][1]  + 5)) + (game.board[0][2]  + 5);\n        row2 = (100 * (game.board[1][0] + 5)) \n        + (10 * (game.board[1][1] + 5)) + (game.board[1][2] +5);\n        row3 = (100 * (game.board[2][0] + 5)) \n        + (10 * (game.board[2][1] + 5)) + (game.board[2][2] +5);\n    }\n    \n    /**\n     * @dev resets the timelimit and changes the player turn\n     * @param _player - current player\n     */\n    function resetTimeLimit(uint8 _player) private {\n        if (_player == 1)\n                game.turn = 2;\n            else\n                game.turn = 1;\n                \n        game.time_limit = block.timestamp + (120);\n    }\n    \n    /**\n     * @dev get total bet tokens\n     * @return uint - total token count\n     */\n    function getTotalBetToken() private view returns(uint) {\n        uint total = 0;\n        for (uint index = 0; index < game.betForEachRounds.length; index++)\n            total += game.betForEachRounds[index];\n\n        return total;\n    }\n    \n     /**\n     * @dev returns total token supply\n     * @return uint - totaltoken supply\n     */\n    function totalSupply() public view returns(uint) {\n        return tokenSupply;\n    }\n    \n    /**\n     * @dev returns the balance token of the provided address\n     * @param _playerAddress - address of the player to check the token balance\n     * @return uint - token balance\n     */\n    function balanceOf(address _playerAddress) public view returns(uint) {\n        return playerTokenMapping[_playerAddress];\n    }\n    \n    \n    /**\n     * @dev transfer the amount of token to _toAddress from _fromAddress\n     * @param _fromAddress - From address of the player\n     * @param _toAddress - To address of the player\n     * @param _token - amount of token to send\n     * @return bool - whether the transfer was success or not\n     * \n     */\n    function transfer(address _fromAddress, address _toAddress, uint _token) private returns(bool) {\n        uint senderToken = playerTokenMapping[_fromAddress];\n        \n        //check for sufficient balance in sender account\n        require(senderToken >= _token, \"Insufficient amount of token\");\n        \n        playerTokenMapping[_toAddress] += _token;\n        playerTokenMapping[_fromAddress] -= _token;\n    }\n    \n    /**\n     * @dev Player should buy token using theri ether\n     * @param _weiAmount - amount to buy token\n     * @param _token - amount of token to buy\n     */\n    function buyToken(address _playerAddress, uint _token, uint _weiAmount) private  {\n        playerTokenMapping[_playerAddress] += _token;\n        owner.transfer(_weiAmount);\n        tokenSupply -= _token;\n    }\n    \n    /**\n     * @dev locks down the total bet tokens till the game seconds\n     * @param _token - total bet amount\n     */\n    function lockDownTokens(uint _token) private {\n        //check for sufficient token to bet for game\n        require(playerTokenMapping[msg.sender] >= _token, \"Insufficient token in sender account to bet\");\n        \n        tokenLockMapping[msg.sender] += _token;\n        playerTokenMapping[msg.sender] -= _token;\n    }\n    \n    /**\n     * @dev Once the game was over players token will be released\n     * @param _playerAddress - address of the player\n     */\n    function releaseToken(address _playerAddress) private {\n        uint token = tokenLockMapping[_playerAddress];\n        playerTokenMapping[_playerAddress] += token;\n    }\n}\n\n",
  "sourcePath": "/Users/muthu_thavamani/Documents/Muthu/GitHub/tic-tac-toe/contracts/TicTacToe.sol",
  "compiler": {
    "name": "solc",
    "version": "0.5.0+commit.1d4f565a.Emscripten.clang"
  },
  "schemaVersion": "3.0.11",
  "updatedAt": "2019-10-20T17:07:19.244Z",
  "devdoc": {
    "methods": {
      "balanceOf(address)": {
        "details": "returns the balance token of the provided address",
        "params": {
          "_playerAddress": "- address of the player to check the token balance"
        },
        "return": "uint - token balance"
      },
      "getState()": {
        "details": "- returns the current game status"
      },
      "getToken(uint256)": {
        "details": "User buys few tokens to their account",
        "params": {
          "_token": "- number of tokens to buy"
        }
      },
      "join()": {
        "details": "the second player to join the existing game      "
      },
      "play(uint256,uint256)": {
        "details": "Once after starting the game player will use this method to play",
        "params": {
          "_column": "- the column the player wants to pick",
          "_row": "- the row the player wants to take"
        }
      },
      "start(uint256,uint256[])": {
        "details": "It starts a new game by initialising it",
        "params": {
          "_betForEachRounds": "- list of bet amounts for each round",
          "_rounds": "- number of rounds"
        }
      },
      "totalSupply()": {
        "details": "returns total token supply",
        "return": "uint - totaltoken supply"
      }
    }
  },
  "userdoc": {
    "methods": {}
  }
}